:020000040800F2
:100000000000012089070008A1050008A3050008D9
:10001000A5050008A7050008A905000800000000C4
:10002000000000000000000000000000AB05000818
:10003000AD05000800000000AF050008B10500088C
:10004000D1070008D1070008D1070008D107000830
:10005000D1070008D1070008D1070008D107000820
:10006000D1070008D1070008D1070008D107000810
:10007000D1070008D1070008D1070008D107000800
:10008000D1070008D1070008D1070008D1070008F0
:10009000D1070008D1070008D1070008D1070008E0
:1000A000D1070008D1070008D1070008D1070008D0
:1000B000D1070008D1070008D1070008D1070008C0
:1000C000D1070008D1070008D1070008D1070008B0
:1000D000D1070008D1070008D1070008D1070008A0
:1000E000D1070008D1070008D1070008D107000890
:1000F000D1070008D1070008D1070008D107000880
:10010000D1070008D1070008D1070008D10700086F
:10011000D1070008D1070008D1070008D10700085F
:10012000D1070008D1070008D1070008D10700084F
:1001300000000000000000000000000000000000BF
:1001400000000000000000000000000000000000AF
:10015000000000000000000000000000000000009F
:10016000000000000000000000000000000000008F
:10017000000000000000000000000000000000007F
:10018000000000000000000000000000000000006F
:10019000000000000000000000000000000000005F
:1001A000000000000000000000000000000000004F
:1001B000000000000000000000000000000000003F
:1001C000000000000000000000000000000000002F
:1001D000000000000000000000000000000000001F
:0401E0005FF8E0F1F3
:1001E40010B5054C237833B9044B13B10448AFF36D
:1001F40000800123237010BD3C0400200000000097
:100204008C21000808B5034B1BB103490348AFF325
:10021400008008BD00000000400400208C2100087C
:1002240000B58DB0002309930A930B9302930393B3
:100234000493059306930793089301932F48304A38
:1002440002604FF4807282600122027303754FF4DE
:100254006021C1614360026100F030FB00283AD1A3
:100264004FF4A023019301A9244800F0DDFC0028E9
:1002740034D10323029301220392069300230493AF
:100284004FF4805208928DF81D308DF81C30059380
:1002940002A91A4800F0A6FB18BB06230293022306
:1002A400039302A9154800F09DFBE8B90E230293BD
:1002B4000323039302A9114800F094FBB8B90D235A
:1002C40002930423039302A90C4800F08BFB88B922
:1002D4000DB05DF804FB00F0D7F8C1E700F0D4F8E6
:1002E400C7E700F0D1F8D8E700F0CEF8DEE700F079
:1002F400CBF8E4E700F0C8F8EAE700BF58040020B0
:100304000024014010B588B000230493059306939C
:10031400079302681C4B9A4201D008B010BD03F544
:100324006C439A6942F400729A619A6902F4007209
:100334000192019A9A6942F010029A619A6902F054
:1003440010020292029A9A6942F004029A619B692D
:1003540003F004030393039B1823049303240594D9
:1003640004A90A4800F004FD48230493059404A951
:10037400074800F0FDFC00220221122000F09EFC40
:10038400122000F0D3FCC8E7002401400010014013
:100394000008014084B0134B9A6942F010029A613C
:1003A4009A6902F010020092009A9A6942F00402DB
:1003B4009A619A6902F004020192019A9A6942F0E0
:1003C40040029A619A6902F040020292029A9A6982
:1003D40042F008029A619B6903F008030393039BAC
:1003E40004B070470010024008B50B480B4B036083
:1003F4000B4B436000238360C3604FF4804202616F
:1004040043618361C361036200F0D2FD00B908BD9A
:1004140000F03AF8FBE700BF8804002000540040D5
:10042400801A060010B586B0002302930393049348
:1004340005930268114B9A4201D006B010BD104CCE
:10044400A36943F00803A361A36903F008030093BD
:10045400009BC0230293122303930323059302A951
:10046400084800F085FCE36943F40013E361E369A1
:1004740003F400130193019BDFE700BF0054004025
:1004840000100240000C014072B6FEE700B597B0C0
:10049400282200210CA801F0B5FD0023079308933E
:1004A40009930A930B930193029303930493059383
:1004B400069301220C924FF480330D931092022282
:1004C400139214934FF4E01315930CA800F064FEF8
:1004D400C8B90F23079302210891002309934FF40D
:1004E40080620A920B9307A801F088F868B9022386
:1004F40001934FF40043039301A801F04BF930B981
:1005040017B05DF804FBFFF7BFFFFFF7BDFFFFF770
:10051400BBFF000008B500F081F9FFF7B7FFFFF754
:1005240039FFFFF77DFEFFF75FFF00F08DF8074C02
:100534000021204601F060FC0421204601F05CFC0F
:100544000821204601F058FCFEE700BFDC0400202F
:1005540000B583B00F4B9A6942F001029A619A691F
:1005640002F001020092009ADA6942F08052DA61E4
:10057400DB6903F080530193019B074A536823F01E
:10058400E06343F000735360052000F085FB03B083
:100594005DF804FB0010024000000140FEE7FEE7A6
:1005A400FEE7FEE7FEE770477047704708B500F0C6
:1005B40047F908BD704700000268094B9A4200D011
:1005C400704782B003F564439A6942F400629A6109
:1005D4009B6903F400630193019B02B0704700BF61
:1005E400002C014000B587B00023029303930493C9
:1005F40005930268114B9A4202D007B05DF804FBE0
:1006040003F564439A6942F040029A619B6903F0DE
:1006140040030193019B4FF4285302930223039355
:10062400059302A9064800F0A3FB064A536843F069
:10063400E06343F0C0035360DFE700BF002C0140D8
:10064400001801400000014030B597B00024129416
:100654001394149415941094119409940A940B947B
:100664000C940D940E940F9420252A46214601A83B
:1006740001F0C8FC4148424B0360446085604FF47C
:100684006163C360046144618023836101F01CFAE7
:10069400002858D14FF48053129312A9374801F01F
:1006A4001DFB002852D1354801F03AFA002850D1F8
:1006B40000231093119310A9304801F017FC00286F
:1006C4004AD1602309934FF4E1630A9300220B9209
:1006D4000C920D920E920F9209A9284801F084FA07
:1006E40000283CD1042209A9244801F07DFA0028FD
:1006F40038D1082209A9214801F076FA002834D11A
:10070400602309934FF461630A930C2209A91B48DF
:1007140001F06AFA60BB4FF4006301934FF4806305
:1007240002934FF480730393002304930593069379
:10073400089301A9114801F017FCE0B90F48FFF72D
:1007440051FF17B030BDFFF79FFEA3E7FFF79CFEF4
:10075400A9E7FFF799FEABE7FFF796FEB1E7FFF7CE
:1007640093FEBFE7FFF790FEC3E7FFF78DFEC7E7F1
:10077400FFF78AFECFE7FFF787FEDFE7DC04002000
:10078400002C0140FFF716FF0B480C490C4A0023CC
:1007940002E0D458C4500433C4188C42F9D3094A33
:1007A400094C002301E013600432A242FBD301F0A0
:1007B40005FCFFF7AFFE7047000000203C0400205A
:1007C400E02100083C0400202C050020FEE7000086
:1007D40010B504460E4B18784FF47A73B3FBF0F35C
:1007E4000C4A1068B0FBF3F000F0AEFA68B90F2CB5
:1007F40001D901200AE0002221464FF0FF3000F029
:100804005DFA054B1C60002000E0012010BD00BF14
:1008140004000020000000200800002008B5074A5A
:10082400136843F010031360032000F035FA0F201F
:10083400FFF7CEFFFFF78CFE002008BD002002402A
:10084400034A1168034B1B780B441360704700BFC5
:100854002405002004000020014B1868704700BFE5
:100864002405002038B503689A6812F0010F01D1FD
:10087400002038BD04469A6822F001029A60FFF70E
:10088400EBFF054623689B6813F0010F13D0FFF7B5
:10089400E3FF431B022BF5D923689B6813F0010F78
:1008A400F0D0A36A43F01003A362E36A43F00103A8
:1008B400E3620120DDE70020DBE70000002800F010
:1008C400888070B50446836A002B52D02046FFF717
:1008D400C9FFA36A13F0100375D1002873D1A26A6B
:1008E40022F4885222F0020242F00202A2626268FA
:1008F400266839498E4242D0E1690A43217B42EAA3
:100904004102A568B5F5807F02D0012D3ED01D4679
:1009140094F814C0BCF1010F3BD0716821F4694113
:10092400294371602568AE682C4931401143A960A0
:10093400A168B1F5807F01D0012902D12369013B6F
:100944001B052568E96A21F470010B43EB622368F7
:100954009968234B0B409A422CD0A36A23F01203CC
:1009640043F01003A362E36A43F00103E36201204E
:100974002EE0C36280F82430FFF7C4FCA6E7E169E7
:10098400B1F5402FB9D14FF40021B6E74FF480758B
:10099400BEE731B9A169013945EA413141F4006545
:1009A400BBE7A16A41F02001A162E16A41F00101C3
:1009B400E162B2E70023E362A36A23F0030343F096
:1009C4000103A36204E0A36A43F01003A3620120BD
:1009D40070BD0120704700BF003C0140FDF7E1FFFE
:1009E400FE0E1FFF70B483B003460022019280689C
:1009F40093F82420012A00F00C81012283F824209A
:100A0400002852D14A68012A45D09A6A42F020024D
:100A14009A6201201C68A26812F0010F0AD1A26830
:100A240022F4E04222F001027B4DAC4268D08D6991
:100A34002A43A2604A7D012A69D00A7D012A76D020
:100A44000A68092A40F281801D68EC6802EB4202C0
:100A54001E3A4FF0070C0CFA02FC24EA0C048E68D0
:100A640006FA02F22243EA600A68103A012A7CD9A3
:100A74004A68022A00F09280032A00F09980012A31
:100A840079D01C68226A22F47F6222F00F02CD68BA
:100A94002A43226278E01868826B920D92050C68F2
:100AA40042EAC43282630020B4E74A680C69A24275
:100AB40016D81E68B56B121B02EB820202F10F00FE
:100AC4001F22824042F4401225EA0205621E0C688D
:100AD40004FA00F040EA02522A43B263002099E784
:100AE4001E68B56B121B02EB82020F321F2000FA44
:100AF40002F242F4401225EA0202B263002089E7BE
:100B04008D69B5F5C04F93D14FF4804590E78C695A
:100B1400B4F5E04F05D0986A40F020009862104682
:100B24008BE71C68626842F48062626085E74C7DF2
:100B34002CB91C68626842F48052626080E7986A4B
:100B440040F02000986210467AE71D682C6902EB99
:100B540042024FF0070C0CFA02FC24EA0C048E68E3
:100B640006FA02F222432A617EE71C68A26842F474
:100B74000002A2607CE71C68626922F47F6222F0B2
:100B84000F02CD682A4362610A68103A012A19D912
:100B9400002283F8242003B070BC70471C68A2694B
:100BA40022F47F6222F00F02CD682A43A261EBE7B0
:100BB4001C68E26922F47F6222F00F02CD682A43A6
:100BC400E261E1E71A68154CA24205D09A6A42F044
:100BD40020029A620120DBE7946814F4000FD7D155
:100BE400946844F4000494600A68102AD0D10C4A32
:100BF40012680C49A1FB0212920C02EB8202520011
:100C0400019202E0019A013A0192019A002AF9D173
:100C1400BEE70220BFE700BF003C014000240140C2
:100C24000000002083DE1B4330B58DB004460D4622
:100C340030220021684601F0E5F994F82430012BB4
:100C440023D0012384F82430114B009323689A683D
:100C540012F0010F07D10E4A926812F0010F02D16F
:100C64000C4A934209D0A36A43F02003A3620120F3
:100C7400002384F824300DB030BD5A6822F4702269
:100C840029680A435A600020F2E70220F3E700BF14
:100C94000028014000240140074AD36823F4E0639C
:100CA4001B041B0C000200F4E060034343F0BF6329
:100CB40043F40033D360704700ED00E000B5194BF6
:100CC400DB68C3F30223C3F1070CBCF1040F28BF94
:100CD4004FF0040C03F1040EBEF1060F18D9033BC8
:100CE4004FF0FF3E0EFA0CFC21EA0C0199400EFA7B
:100CF40003F322EA0303194300280BDB0901C9B2F9
:100D040000F1604000F5614080F800135DF804FBD9
:100D14000023E5E700F00F000901C9B2024B1954A2
:100D2400F4E700BF00ED00E014ED00E0002807DB6D
:100D340000F01F02400901239340024A42F8203088
:100D4400704700BF00E100E00138B0F1807F0BD2B2
:100D54004FF0E0235861054AF02182F82310002067
:100D6400986107221A6170470120704700ED00E086
:100D740070B582B00024A446B0E0874DAA4210D0DA
:100D840007D9864DAA420CD005F58035AA4208D071
:100D940013E0A5F58015AA4203D005F57025AA42F3
:100DA40007D18A68002A62D0012A5BD043610824F3
:100DB40003E0A5F58015AA42F3D0BEF1FF0F58D881
:100DC4000646BEF1FF0F56D84FEA8C0233680F2552
:100DD400954023EA050304FA02F2134333604B6897
:100DE40013F0805F78D06E4B9A6942F001029A61E9
:100DF4009B6903F001030193019B4FEA9C02951C3C
:100E0400684B53F825600CF003039D000F23AB409F
:100E140026EA0306644B984233D003F58063984274
:100E240000F0988003F58063984200F0958003F504
:100E34008063984200F0928003F58063984200F04A
:100E44008F8003F58063984219D006231AE0CC689A
:100E5400B3E7CC680434B0E7CC680834ADE7CC68B9
:100E64000C34AAE703610824A7E70024A5E70424B7
:100E7400A3E7061DA5E7ACF108029200A6E7052347
:100E840000E00023AB4033430232464D45F82230A4
:100E94004B6813F4801F65D0444A936843EA0E03F9
:100EA40093604B6813F4001F62D0404AD36843EA4E
:100EB4000E03D3604B6813F4003F5FD03B4A536882
:100EC40043EA0E0353604B6813F4803F5CD0374A07
:100ED400136843EA0E0313600CF1010C0A6832FA3A
:100EE4000CF357D0012303FA0CF302EA030E33EA9E
:100EF4000202F1D14A68122A3FF63FAF122A3FF6A6
:100F04005CAF01A555F822F0A70D0008530E0008A8
:100F14005D0E00086F0E0008BF0D0008BF0D00082D
:100F2400BF0D0008BF0D0008BF0D0008BF0D00086D
:100F3400BF0D0008BF0D0008BF0D0008BF0D00085D
:100F4400BF0D0008BF0D0008BF0D0008570E0008B4
:100F5400630E0008012395E7022393E7032391E737
:100F640004238FE7114A936823EA0E03936098E7FA
:100F74000E4AD36823EA0E03D3609BE70B4A5368F7
:100F840023EA0E0353609EE7084A136823EA0E031C
:100F94001360A1E702B070BD000022100000311000
:100FA400001002400000014000080140000401401C
:100FB400002800F0CC8070B5044690F83D30002B3A
:100FC40077D0242384F83D302268136823F001038A
:100FD40013602268136843F40043136022681368A3
:100FE40023F40043136000F0C5FB62685A4B9A4235
:100FF40064D85A4B98428CBF00230123002B40F045
:10100400A8805749A1FB00318B0C25686A6822F03F
:101014003F0242EA91426A6021680A6A22F03F0272
:1010240066684D4DAE424FD8013313430B622168BD
:10103400CA6922F44F4222F0FF026668464B9E4280
:101044004CD8431E7600B3FBF6F3013340F6FC7034
:10105400034278D0C3F30B031343CB6121680B68BD
:1010640023F0C003E269206A024313430B60216842
:101074008B6823F4034323F0FF032269E0680243EF
:1010840013438B602168CB6823F0FF036269A06976
:1010940002431343CB602268136843F001031360D7
:1010A40000202064202384F83D30206384F83E002F
:1010B40070BD80F83C30FFF7B5F982E7294B9842C0
:1010C4008CBF0023012399E74FF4967505FB03F3C6
:1010D400254DA5FB03539B090133A6E7A368BBB9C0
:1010E400451E06EB460CB5FBFCF50135C5F30B05B7
:1010F400B5FA85F56D0945BBC3B9013806EB46035E
:10110400B0FBF3F30133C3F30B0343F40043A3E74E
:10111400451E06EB860C0CEB8C0CB5FBFCF501357F
:10112400C5F30B05B5FA85F56D09E4E7013806EB5F
:10113400860303EB8303B0FBF3F30133C3F30B0325
:1011440043F4404388E7042386E7012384E701202E
:1011540070470120ACE700BFA08601007F841E0019
:1011640083DE1B43FF083D00D34D621082B0084B61
:101174001B68084AA2FB03235B0A00FB03F30193E9
:1011840000BF019B5A1E0192002BF9D102B0704797
:1011940000000020D34D6210002800F0F18170B5EA
:1011A40082B00446036813F0010F2CD0994B5B689E
:1011B40003F00C03042B1DD0964B5B6803F00C0367
:1011C400082B12D06368B3F5803F41D0002B55D172
:1011D40003F1804303F504331A6822F480321A6061
:1011E4001A6822F480221A6037E08A4B5B6813F491
:1011F400803FE7D0874B1B6813F4003F03D063683C
:10120400002B00F0BF81236813F0020F75D0814BCF
:101214005B6813F00C0F5FD07E4B5B6803F00C032C
:10122400082B54D02369002B00F08A807A4B0122CA
:101234001A60FFF711FB0546764B1B6813F0020F8B
:1012440075D1FFF709FB401B0228F5D903209EE165
:10125400704A136843F480331360636843B3FFF741
:10126400FBFA05466B4B1B6813F4003FCBD1FFF729
:10127400F3FA401B6428F5D9032088E1B3F5A02FC5
:1012840009D0644B1A6822F480321A601A6822F476
:1012940080221A60E1E703F18043A3F53C331A6826
:1012A40042F480221A601A6842F480321A60D4E749
:1012B400FFF7D2FA0546574B1B6813F4003FA2D040
:1012C400FFF7CAFA401B6428F5D903205FE1514BAC
:1012D4005B6813F4803FA5D14E4B1B6813F0020FDB
:1012E40003D02369012B40F04F814A4A136823F04D
:1012F400F803616943EAC1031360236813F0080F1C
:1013040033D0A369002B5CD0434B0122C3F8802463
:10131400FFF7A2FA05463F4B5B6A13F0020F21D197
:10132400FFF79AFA401B0228F5D903202FE1394A26
:10133400136823F0F803616943EAC1031360DCE72F
:10134400354B00221A60FFF787FA0546314B1B68BC
:1013540013F0020FD1D0FFF77FFA401B0228F5D912
:10136400032014E10120FFF701FF236813F0040FA9
:1013740000F09680274BDB6913F0805F34D1254B56
:10138400DA6942F08052DA61DB6903F08053019339
:10139400019B0125214B1B6813F4807F26D0E36851
:1013A400012B3DD0002B53D103F1804303F50433CB
:1013B4001A6A22F001021A621A6A22F004021A62FC
:1013C40033E0154B0022C3F88024FFF745FA0546A5
:1013D400104B5B6A13F0020FC7D0FFF73DFA401BB6
:1013E4000228F5D90320D2E00025D3E70B4A13687D
:1013F40043F480731360FFF72FFA0646074B1B680C
:1014040013F4807FCBD1FFF727FA801B6428F5D92A
:101414000320BCE000100240000042420070004083
:101424005F4A136A43F001031362E36833B3FFF7BF
:1014340013FA06465A4B1B6A13F0020F2FD1FFF71B
:101444000BFA801B41F288339842F3D903209EE0C3
:10145400052B09D0524B1A6A22F001021A621A6A49
:1014640022F004021A62E0E74D4B1A6A42F00402C9
:101474001A621A6A42F001021A62D6E7FFF7ECF91F
:101484000646474B1B6A13F0020F08D0FFF7E4F936
:10149400801B41F288339842F3D9032077E0E5B901
:1014A400E369002B72D03E4A526802F00C02082A0B
:1014B40056D0022B17D03B4B00221A66FFF7CCF90B
:1014C4000446374B1B6813F0007F47D0FFF7C4F97D
:1014D400001B0228F5D9032059E0314AD36923F0CF
:1014E4008053D361DCE72F4B00221A66FFF7B4F96F
:1014F40005462B4B1B6813F0007F06D0FFF7ACF9B1
:10150400401B0228F5D9032041E0236AB3F5803F4C
:101514001AD023494B6823F47413226A606A024385
:1015240013434B601F4B01221A66FFF795F90446DB
:101534001B4B1B6813F0007F0ED1FFF78DF9001BC6
:101544000228F5D9032022E0154A536823F4003316
:10155400A1680B435360DCE7002018E0002016E08C
:10156400012B16D00E4B5B6803F48031226A914242
:1015740011D103F47013626A93420ED1002006E085
:1015840001207047012002E0012000E0002002B0A9
:1015940070BD0120FBE70120F9E70120F7E700BF58
:1015A40000100240000042420F4B5B6803F00C0243
:1015B400082A01D00D487047C3F383420C49885C64
:1015C40013F4803F0BD0084B5B68C3F34043094AD4
:1015D400D35C064A02FB00F0B0FBF3F07047064B05
:1015E40003FB00F0704700BF0010024000127A00B5
:1015F400BC210008CC21000800093D00002800F0AF
:10160400A08070B50D460446524B1B6803F00703D7
:101614008B420BD24F4A136823F007030B4313602A
:10162400136803F007038B4240F08D80236813F0A6
:10163400020F17D013F0040F04D0474A536843F441
:10164400E0635360236813F0080F04D0424A5368E0
:1016540043F460535360404A536823F0F003A16895
:101664000B435360236813F0010F31D06368012BDF
:1016740020D0022B25D0384A126812F0020F64D011
:1016840035494A6822F0030213434B60FFF7E4F83C
:101694000646314B5B6803F00C036268B3EB820FC0
:1016A40016D0FFF7D9F8801B41F288339842F0D95D
:1016B400032045E0284A126812F4003FE0D10120DB
:1016C4003EE0254A126812F0007FD9D1012037E0AC
:1016D400204B1B6803F00703AB420AD91D4A136869
:1016E40023F007032B431360136803F00703AB4293
:1016F4002DD1236813F0040F06D0174A536823F43E
:10170400E063E1680B435360236813F0080F07D0CC
:10171400114A536823F46053216943EAC1035360B7
:10172400FFF742FF0C4B5B68C3F303130B4AD35C14
:10173400D8400B4B18600B4B1868FFF749F8002092
:1017440070BD012070470120FAE70120F8E701206D
:10175400F6E700BF0020024000100240A421000868
:101764000000002008000020014B1868704700BFEB
:101774000000002008B5FFF7F7FF044B5B68C3F3D4
:101784000223034AD35CD84008BD00BF00100240C6
:10179400B421000870B582B00446036813F0010F49
:1017A40036D03F4BDB6913F0805F49D13C4BDA699B
:1017B40042F08052DA61DB6903F080530193019BAC
:1017C4000125384B1B6813F4807F3BD0344B1B6AD4
:1017D40013F4407313D0626802F440729A420ED03C
:1017E4002F4A136A23F440702F490126C1F840643C
:1017F4000026C1F84064106213F0010F36D1284A64
:10180400136A23F4407361680B431362002D3ED1C5
:10181400236813F0020F06D0214A536823F440438F
:10182400A1680B435360236813F0100F34D01C4A93
:10183400536823F4800361690B43536000202CE058
:101844000025BEE7174A136843F480731360FFF75B
:1018540003F80646134B1B6813F4807FB6D1FEF7DA
:10186400FBFF801B6428F5D9032016E0FEF7F4FF84
:1018740006460B4B1B6A13F0020FC0D1FEF7ECFFB8
:10188400801B41F288339842F3D9032005E0D369E1
:1018940023F08053D361BBE7002002B070BD00BFCA
:1018A40000100240007000400000424230B4036A5D
:1018B400026A22F0010202624268846924F073041D
:1018C4000D682C4323F0020C8B6843EA0C03104D83
:1018D400A84203D005F50065A84205D123F008030A
:1018E400CD682B4323F00403094DA84203D005F52A
:1018F4000065A84205D122F440724D692A438D69DE
:101904002A43426084614A684263036230BC704780
:10191400002C014030B4036A026A22F4807202622D
:101924004268C46924F0730C0C6844EA0C0523F47F
:1019340000738C6843EA0423114CA04203D004F5DD
:101944000064A04206D123F40063CC6843EA042374
:1019540023F480630A4CA04203D004F50064A0423F
:1019640007D122F440524C6942EA04128C6942EADB
:1019740004124260C5614A68C263036230BC7047A6
:10198400002C014030B4036A026A22F480520262DD
:101994004468C26922F4E6420D6842EA052223F44F
:1019A40000538D6843EA0533094DA84203D005F579
:1019B4000065A84204D124F480444D6944EA8514A6
:1019C4004460C2614A680264036230BC704700BF6D
:1019D400002C014010B4036A046A24F00104046278
:1019E400846924F0F00C4CEA021223F00A030B433E
:1019F4008261036210BC704710B4036A046A24F065
:101A040010040462846924F4704C4CEA023223F01A
:101A1400A00343EA01138261036210BC7047836828
:101A240023F070030B4343F0070383607047704750
:101A34000368244A904212D002F5006290420ED00C
:101A4400B0F1804F0BD0A2F59832904207D002F546
:101A54008062904203D002F58062904203D123F069
:101A640070034A681343174A904212D002F5006289
:101A740090420ED0B0F1804F0BD0A2F59832904234
:101A840007D002F58062904203D002F58062904252
:101A940003D123F44073CA68134323F080034A69D3
:101AA400134303608B68C3620B688362054B9842DF
:101AB40003D003F50063984201D10B69036301234A
:101AC40043617047002C014040B310B5044690F8C0
:101AD4003D30F3B1022384F83D30214651F8040B24
:101AE400FFF7A6FF012384F8463084F83E3084F8DB
:101AF4003F3084F8403084F8413084F8423084F830
:101B0400433084F8443084F8453084F83D30002074
:101B140010BD80F83C30FEF74FFDDBE70120704735
:101B240040B310B5044690F83D30F3B1022384F875
:101B34003D30214651F8040BFFF77AFF012384F866
:101B4400463084F83E3084F83F3084F8403084F8DE
:101B5400413084F8423084F8433084F8443084F8C7
:101B6400453084F83D30002010BD80F83C30FFF74C
:101B74005EFFDBE70120704730B4036A026A22F09B
:101B8400100202624468826922F4E6420D6842EA65
:101B9400052223F020038D6843EA0513114DA84262
:101BA40003D005F50065A84206D123F08003CD6873
:101BB40043EA051323F040030A4DA84203D005F578
:101BC4000065A84207D124F440644D6944EA8504C1
:101BD4008D6944EA8504446082614A6882630362D1
:101BE40030BC7047002C014038B590F83C30012BD4
:101BF40066D004460D46012380F83C300C2A5AD89E
:101C0400DFE802F0075959591B59595930595959A4
:101C140044000068FFF74AFE2268936943F0080312
:101C240093612268936923F00403936122689369A2
:101C340029690B43936100203EE00068FFF79CFF95
:101C44002268936943F4006393612268936923F4DF
:101C54008063936122689369296943EA012393614C
:101C6400002029E00068FFF755FE2268D36943F09D
:101C74000803D3612268D36923F00403D361226883
:101C8400D36929690B43D361002015E00068FFF78D
:101C940079FE2268D36943F40063D3612268D3696F
:101CA40023F48063D3612268D369296943EA012359
:101CB400D361002000E00120002384F83C3038BDCB
:101CC4000220FCE710B4846824F47F4C42EA032227
:101CD4000A4342EA0C02826010BC704790F83C3020
:101CE400012B78D010B50446012380F83C30022340
:101CF40080F83D300268936823F47F4323F0770330
:101D040093600B68602B4CD029D8402B54D00CD94D
:101D1400502B22D1CA6849680068FFF75BFE502146
:101D24002068FFF77CFE002005E0202B0DD009D9A8
:101D3400302B0AD00120012384F83D30002384F89D
:101D44003C3010BD0BB1102B05D119462068FFF7AC
:101D540066FE0020EFE70120EDE70120EBE7B3F595
:101D6400805F34D0B3F5005F0CD1CB684A688968D2
:101D74000068FFF7A7FF2268936843F480439360E9
:101D84000020D8E7702B24D1CB684A6889680068A2
:101D9400FFF798FF2268936843F07703936000206D
:101DA400C9E7CA6849680068FFF726FE6021206811
:101DB400FFF735FE0020BEE7CA6849680068FFF7F0
:101DC40009FE40212068FFF72AFE0020B3E7002027
:101DD400B1E70120AFE70220704701F01F010123A2
:101DE40003FA01FC036A23EA0C030362036A02FA9E
:101DF40001F10B430362704710B5044608460029FD
:101E04003AD194F83E30DBB2013B18BF0123002BDA
:101E140066D1002849D1022384F83E3001220146CC
:101E24002068FFF7DAFF23682F4A934203D002F5B4
:101E34000062934203D15A6C42F400425A6423680C
:101E4400294A934241D002F5006293423DD0B3F156
:101E5400804F3AD0A2F59832934236D002F5806290
:101E6400934232D002F5806293422ED01A6842F037
:101E740001021A60002032E0042908D008290DD09C
:101E840094F84130DBB2013B18BF0123BFE794F85B
:101E94003F30DBB2013B18BF0123B8E794F8403070
:101EA400DBB2013B18BF0123B1E7042805D00828A1
:101EB40007D0022384F84130B0E7022384F83F308E
:101EC400ACE7022384F84030A8E79A6802F00702DE
:101ED400062A07D01A6842F001021A60002010BDD9
:101EE4000120FCE70020FAE7002C014090F83C3088
:101EF400012B34D010B4012380F83C30022380F845
:101F04003D3003685A689C6822F0700C0A6842EA03
:101F14000C025A600368134A934212D002F500621D
:101F240093420ED0B3F1804F0BD0A2F59832934276
:101F340007D002F58062934203D002F58062934297
:101F440004D124F080044A6814439C60012380F87F
:101F54003D30002380F83C30184610BC7047022006
:101F6400704700BF002C014090F83C30012B22D078
:101F7400012380F83C30CB6823F440738A68134310
:101F840023F480634A68134323F400630A68134309
:101F940023F480530A69134323F400534A69134317
:101FA40023F48043CA69134302685364002380F80E
:101FB4003C301846704702207047000070B50D4E43
:101FC4000D4D761BB61006D0002455F8043B0134A1
:101FD4009847A642F9D1094E094D00F0D5F8761B71
:101FE400B61006D0002455F8043B01349847A642A5
:101FF400F9D170BDD4210008D4210008DC210008E7
:10200400D4210008830730B548D0541E002A3FD09D
:102014000346CAB201E0013C3AD303F8012B9D0701
:10202400F9D1032C2DD9CDB245EA05250F2C45EA6B
:10203400054536D9A4F1100222F00F0C03F1200E4D
:10204400E6444FEA121C03F1100242E9045542E946
:10205400025510327245F8D10CF1010214F00C0F44
:1020640003EB021204F00F0C13D0ACF1040323F0C1
:1020740003030433134442F8045B9342FBD10CF092
:1020840003042CB1CAB21C4403F8012B9C42FBD1BB
:1020940030BD64461346002CF4D1F9E703461446D8
:1020A400BFE71A46A446E0E7024B13B1024800F02A
:1020B40005B8704700000000CD2000080023014649
:1020C4001A46184600F01AB838B5084B084D5B1B81
:1020D4009C1007D0043B1D44013C55F80439984733
:1020E400002CF9D1BDE8384000F054B8E0210008D4
:1020F400DC210008704700BF704700BF2DE9F0479E
:10210400DFF87CA00646DAF8000098460F469146B0
:10211400FFF7F0FF1B4B1B68D3F8484124B36568F5
:102124001F2D26DC5EB96B1C0235DAF800006360F3
:1021340044F82570FFF7E0FF0020BDE8F087012395
:1021440004EB8501C1F88890D4F88821AB401A4388
:10215400022EC4F88821C1F80881E4D1D4F88C2176
:102164001343C4F88C31DEE703F5A674C3F8484181
:10217400D5E7DAF80000FFF7BFFF4FF0FF30DCE7E8
:1021840038040020D0210008F8B500BFF8BC08BC12
:102194009E467047F8B500BFF8BC08BC9E46704721
:1021A4000000000000000000010203040607080903
:1021B40000000000010203040203040506070809E5
:1021C4000A0B0C0D0E0F101001020000100000206D
:0821D400AD200008090200081B
:0421DC00E501000811
:1021E0000024F400010000001000000000000000C6
:1021F00000000000FC02002064030020CC0300204B
:1022000000000000000000000000000000000000CE
:1022100000000000000000000000000000000000BE
:1022200000000000000000000000000000000000AE
:10223000000000000000000000000000000000009E
:10224000000000000000000000000000000000008E
:10225000000000000000000000000000000000007E
:10226000000000000000000000000000000000006E
:10227000000000000000000000000000000000005E
:10228000000000000000000000000000000000004E
:10229000000000000000000001000000000000003D
:1022A0000E33CDAB34126DE6ECDE05000B00000002
:1022B000000000000000000000000000000000001E
:1022C000000000000000000000000000000000000E
:1022D00000000000000000000000000000000000FE
:1022E00000000000000000000000000000000000EE
:0C26100000000000000000002805002071
:04000005080007895F
:00000001FF
